{
  "_format": "hh-sol-artifact-1",
  "contractName": "Poor",
  "sourceName": "contracts/Poor.sol",
  "abi": [
    {
      "inputs": [
        {
          "internalType": "address",
          "name": "account",
          "type": "address"
        }
      ],
      "name": "NotAuthorized",
      "type": "error"
    },
    {
      "inputs": [],
      "name": "NotEnoughSupply",
      "type": "error"
    },
    {
      "inputs": [],
      "name": "NotEnoughValue",
      "type": "error"
    },
    {
      "anonymous": false,
      "inputs": [
        {
          "indexed": true,
          "internalType": "address",
          "name": "owner",
          "type": "address"
        },
        {
          "indexed": true,
          "internalType": "address",
          "name": "spender",
          "type": "address"
        },
        {
          "indexed": false,
          "internalType": "uint256",
          "name": "value",
          "type": "uint256"
        }
      ],
      "name": "Approval",
      "type": "event"
    },
    {
      "anonymous": false,
      "inputs": [
        {
          "indexed": true,
          "internalType": "address",
          "name": "owner",
          "type": "address"
        },
        {
          "indexed": false,
          "internalType": "uint256",
          "name": "tokenId",
          "type": "uint256"
        }
      ],
      "name": "Mint",
      "type": "event"
    },
    {
      "anonymous": false,
      "inputs": [
        {
          "indexed": true,
          "internalType": "address",
          "name": "from",
          "type": "address"
        },
        {
          "indexed": true,
          "internalType": "address",
          "name": "to",
          "type": "address"
        },
        {
          "indexed": false,
          "internalType": "uint256",
          "name": "value",
          "type": "uint256"
        }
      ],
      "name": "Transfer",
      "type": "event"
    },
    {
      "inputs": [],
      "name": "FEE",
      "outputs": [
        {
          "internalType": "uint256",
          "name": "",
          "type": "uint256"
        }
      ],
      "stateMutability": "view",
      "type": "function"
    },
    {
      "inputs": [],
      "name": "INITIAL_SUPPLY",
      "outputs": [
        {
          "internalType": "uint256",
          "name": "",
          "type": "uint256"
        }
      ],
      "stateMutability": "view",
      "type": "function"
    },
    {
      "inputs": [
        {
          "internalType": "address",
          "name": "owner",
          "type": "address"
        },
        {
          "internalType": "address",
          "name": "spender",
          "type": "address"
        }
      ],
      "name": "allowance",
      "outputs": [
        {
          "internalType": "uint256",
          "name": "remaining",
          "type": "uint256"
        }
      ],
      "stateMutability": "view",
      "type": "function"
    },
    {
      "inputs": [
        {
          "internalType": "address",
          "name": "owner",
          "type": "address"
        },
        {
          "internalType": "address",
          "name": "spender",
          "type": "address"
        }
      ],
      "name": "amount",
      "outputs": [
        {
          "internalType": "uint256",
          "name": "remaining",
          "type": "uint256"
        }
      ],
      "stateMutability": "view",
      "type": "function"
    },
    {
      "inputs": [
        {
          "internalType": "address",
          "name": "spender",
          "type": "address"
        },
        {
          "internalType": "uint256",
          "name": "value",
          "type": "uint256"
        }
      ],
      "name": "approve",
      "outputs": [
        {
          "internalType": "bool",
          "name": "success",
          "type": "bool"
        }
      ],
      "stateMutability": "nonpayable",
      "type": "function"
    },
    {
      "inputs": [
        {
          "internalType": "address",
          "name": "owner",
          "type": "address"
        }
      ],
      "name": "balanceOf",
      "outputs": [
        {
          "internalType": "uint256",
          "name": "balance",
          "type": "uint256"
        }
      ],
      "stateMutability": "view",
      "type": "function"
    },
    {
      "inputs": [],
      "name": "decimals",
      "outputs": [
        {
          "internalType": "uint8",
          "name": "",
          "type": "uint8"
        }
      ],
      "stateMutability": "pure",
      "type": "function"
    },
    {
      "inputs": [],
      "name": "mint",
      "outputs": [],
      "stateMutability": "payable",
      "type": "function"
    },
    {
      "inputs": [],
      "name": "name",
      "outputs": [
        {
          "internalType": "string",
          "name": "",
          "type": "string"
        }
      ],
      "stateMutability": "pure",
      "type": "function"
    },
    {
      "inputs": [],
      "name": "symbol",
      "outputs": [
        {
          "internalType": "string",
          "name": "",
          "type": "string"
        }
      ],
      "stateMutability": "pure",
      "type": "function"
    },
    {
      "inputs": [],
      "name": "totalSupply",
      "outputs": [
        {
          "internalType": "uint256",
          "name": "",
          "type": "uint256"
        }
      ],
      "stateMutability": "view",
      "type": "function"
    },
    {
      "inputs": [
        {
          "internalType": "address",
          "name": "to",
          "type": "address"
        },
        {
          "internalType": "uint256",
          "name": "value",
          "type": "uint256"
        }
      ],
      "name": "transfer",
      "outputs": [
        {
          "internalType": "bool",
          "name": "success",
          "type": "bool"
        }
      ],
      "stateMutability": "nonpayable",
      "type": "function"
    },
    {
      "inputs": [
        {
          "internalType": "address",
          "name": "from",
          "type": "address"
        },
        {
          "internalType": "address",
          "name": "to",
          "type": "address"
        },
        {
          "internalType": "uint256",
          "name": "value",
          "type": "uint256"
        }
      ],
      "name": "transferFrom",
      "outputs": [
        {
          "internalType": "bool",
          "name": "success",
          "type": "bool"
        }
      ],
      "stateMutability": "nonpayable",
      "type": "function"
    }
  ],
  "bytecode": "0x6080604052601260ff16600a61001591906101a4565b620f424061002391906101ef565b60005534801561003257600080fd5b50610231565b7f4e487b7100000000000000000000000000000000000000000000000000000000600052601160045260246000fd5b60008160011c9050919050565b6000808291508390505b60018511156100be5780860481111561009a57610099610038565b5b60018516156100a95780820291505b80810290506100b785610067565b945061007e565b94509492505050565b6000826100d75760019050610193565b816100e55760009050610193565b81600181146100fb576002811461010557610134565b6001915050610193565b60ff84111561011757610116610038565b5b8360020a91508482111561012e5761012d610038565b5b50610193565b5060208310610133831016604e8410600b84101617156101695782820a90508381111561016457610163610038565b5b610193565b6101768484846001610074565b9250905081840481111561018d5761018c610038565b5b81810290505b9392505050565b6000819050919050565b60006101af8261019a565b91506101ba8361019a565b92506101e77fffffffffffffffffffffffffffffffffffffffffffffffffffffffffffffffff84846100c7565b905092915050565b60006101fa8261019a565b91506102058361019a565b92508282026102138161019a565b9150828204841483151761022a57610229610038565b5b5092915050565b6112ba806102406000396000f3fe6080604052600436106100c25760003560e01c8063313ce5671161007f57806395d89b411161005957806395d89b4114610271578063a9059cbb1461029c578063c57981b5146102d9578063dd62ed3e14610304576100c2565b8063313ce567146101cc5780635652d990146101f757806370a0823114610234576100c2565b806306fdde03146100c7578063095ea7b3146100f25780631249c58b1461012f57806318160ddd1461013957806323b872dd146101645780632ff2e9dc146101a1575b600080fd5b3480156100d357600080fd5b506100dc610341565b6040516100e99190610d1f565b60405180910390f35b3480156100fe57600080fd5b5061011960048036038101906101149190610dda565b61037e565b6040516101269190610e35565b60405180910390f35b610137610470565b005b34801561014557600080fd5b5061014e6105c9565b60405161015b9190610e5f565b60405180910390f35b34801561017057600080fd5b5061018b60048036038101906101869190610e7a565b6105cf565b6040516101989190610e35565b60405180910390f35b3480156101ad57600080fd5b506101b66109bd565b6040516101c39190610e5f565b60405180910390f35b3480156101d857600080fd5b506101e16109df565b6040516101ee9190610ee9565b60405180910390f35b34801561020357600080fd5b5061021e60048036038101906102199190610f04565b6109e8565b60405161022b9190610e5f565b60405180910390f35b34801561024057600080fd5b5061025b60048036038101906102569190610f44565b610a0d565b6040516102689190610e5f565b60405180910390f35b34801561027d57600080fd5b50610286610a25565b6040516102939190610d1f565b60405180910390f35b3480156102a857600080fd5b506102c360048036038101906102be9190610dda565b610a62565b6040516102d09190610e35565b60405180910390f35b3480156102e557600080fd5b506102ee610bf8565b6040516102fb9190610e5f565b60405180910390f35b34801561031057600080fd5b5061032b60048036038101906103269190610f04565b610c03565b6040516103389190610e5f565b60405180910390f35b60606040518060400160405280600981526020017f506f6f72546f6b656e0000000000000000000000000000000000000000000000815250905090565b600081600260003373ffffffffffffffffffffffffffffffffffffffff1673ffffffffffffffffffffffffffffffffffffffff16815260200190815260200160002060008573ffffffffffffffffffffffffffffffffffffffff1673ffffffffffffffffffffffffffffffffffffffff168152602001908152602001600020819055508273ffffffffffffffffffffffffffffffffffffffff163373ffffffffffffffffffffffffffffffffffffffff167f8c5be1e5ebec7d5bd14f71427d1e84f3dd0314c0f7b2291e5b200ac8c7c3b9258460405161045e9190610e5f565b60405180910390a36001905092915050565b662386f26fc1000034146104b0576040517fe2f844a000000000000000000000000000000000000000000000000000000000815260040160405180910390fd5b60008054905060018110156104f1576040517f74d9e0b900000000000000000000000000000000000000000000000000000000815260040160405180910390fd5b60016000808282546105039190610fa0565b9250508190555060018060003373ffffffffffffffffffffffffffffffffffffffff1673ffffffffffffffffffffffffffffffffffffffff16815260200190815260200160002060008282546105599190610fd4565b925050819055503373ffffffffffffffffffffffffffffffffffffffff16600073ffffffffffffffffffffffffffffffffffffffff167fddf252ad1be2c89b69c2b068fc378daa952ba7f163c4a11628f55a4df523b3ef346040516105be9190610e5f565b60405180910390a350565b60005481565b6000808473ffffffffffffffffffffffffffffffffffffffff163373ffffffffffffffffffffffffffffffffffffffff161490508015801561068d57506000600260008773ffffffffffffffffffffffffffffffffffffffff1673ffffffffffffffffffffffffffffffffffffffff16815260200190815260200160002060003373ffffffffffffffffffffffffffffffffffffffff1673ffffffffffffffffffffffffffffffffffffffff16815260200190815260200160002054145b156106cf57336040517f4a0bfec10000000000000000000000000000000000000000000000000000000081526004016106c69190611017565b60405180910390fd5b82600160008773ffffffffffffffffffffffffffffffffffffffff1673ffffffffffffffffffffffffffffffffffffffff168152602001908152602001600020541015610748576040517fe2f844a000000000000000000000000000000000000000000000000000000000815260040160405180910390fd5b806108a05782600260008773ffffffffffffffffffffffffffffffffffffffff1673ffffffffffffffffffffffffffffffffffffffff16815260200190815260200160002060003373ffffffffffffffffffffffffffffffffffffffff1673ffffffffffffffffffffffffffffffffffffffff16815260200190815260200160002054101561080c576040517f08c379a0000000000000000000000000000000000000000000000000000000008152600401610803906110a4565b60405180910390fd5b82600260008773ffffffffffffffffffffffffffffffffffffffff1673ffffffffffffffffffffffffffffffffffffffff16815260200190815260200160002060003373ffffffffffffffffffffffffffffffffffffffff1673ffffffffffffffffffffffffffffffffffffffff16815260200190815260200160002060008282546108989190610fa0565b925050819055505b82600160008773ffffffffffffffffffffffffffffffffffffffff1673ffffffffffffffffffffffffffffffffffffffff16815260200190815260200160002060008282546108ef9190610fa0565b9250508190555082600160008673ffffffffffffffffffffffffffffffffffffffff1673ffffffffffffffffffffffffffffffffffffffff16815260200190815260200160002060008282546109459190610fd4565b925050819055508373ffffffffffffffffffffffffffffffffffffffff168573ffffffffffffffffffffffffffffffffffffffff167fddf252ad1be2c89b69c2b068fc378daa952ba7f163c4a11628f55a4df523b3ef856040516109a99190610e5f565b60405180910390a360019150509392505050565b601260ff16600a6109ce91906111f7565b620f42406109dc9190611242565b81565b60006012905090565b6002602052816000526040600020602052806000526040600020600091509150505481565b60016020528060005260406000206000915090505481565b60606040518060400160405280600481526020017f504f4f5200000000000000000000000000000000000000000000000000000000815250905090565b600081600160003373ffffffffffffffffffffffffffffffffffffffff1673ffffffffffffffffffffffffffffffffffffffff168152602001908152602001600020541015610add576040517fe2f844a000000000000000000000000000000000000000000000000000000000815260040160405180910390fd5b81600160003373ffffffffffffffffffffffffffffffffffffffff1673ffffffffffffffffffffffffffffffffffffffff1681526020019081526020016000206000828254610b2c9190610fa0565b9250508190555081600160008573ffffffffffffffffffffffffffffffffffffffff1673ffffffffffffffffffffffffffffffffffffffff1681526020019081526020016000206000828254610b829190610fd4565b925050819055508273ffffffffffffffffffffffffffffffffffffffff163373ffffffffffffffffffffffffffffffffffffffff167fddf252ad1be2c89b69c2b068fc378daa952ba7f163c4a11628f55a4df523b3ef84604051610be69190610e5f565b60405180910390a36001905092915050565b662386f26fc1000081565b600080600260008573ffffffffffffffffffffffffffffffffffffffff1673ffffffffffffffffffffffffffffffffffffffff16815260200190815260200160002060008473ffffffffffffffffffffffffffffffffffffffff1673ffffffffffffffffffffffffffffffffffffffff1681526020019081526020016000205490508091505092915050565b600081519050919050565b600082825260208201905092915050565b60005b83811015610cc9578082015181840152602081019050610cae565b60008484015250505050565b6000601f19601f8301169050919050565b6000610cf182610c8f565b610cfb8185610c9a565b9350610d0b818560208601610cab565b610d1481610cd5565b840191505092915050565b60006020820190508181036000830152610d398184610ce6565b905092915050565b600080fd5b600073ffffffffffffffffffffffffffffffffffffffff82169050919050565b6000610d7182610d46565b9050919050565b610d8181610d66565b8114610d8c57600080fd5b50565b600081359050610d9e81610d78565b92915050565b6000819050919050565b610db781610da4565b8114610dc257600080fd5b50565b600081359050610dd481610dae565b92915050565b60008060408385031215610df157610df0610d41565b5b6000610dff85828601610d8f565b9250506020610e1085828601610dc5565b9150509250929050565b60008115159050919050565b610e2f81610e1a565b82525050565b6000602082019050610e4a6000830184610e26565b92915050565b610e5981610da4565b82525050565b6000602082019050610e746000830184610e50565b92915050565b600080600060608486031215610e9357610e92610d41565b5b6000610ea186828701610d8f565b9350506020610eb286828701610d8f565b9250506040610ec386828701610dc5565b9150509250925092565b600060ff82169050919050565b610ee381610ecd565b82525050565b6000602082019050610efe6000830184610eda565b92915050565b60008060408385031215610f1b57610f1a610d41565b5b6000610f2985828601610d8f565b9250506020610f3a85828601610d8f565b9150509250929050565b600060208284031215610f5a57610f59610d41565b5b6000610f6884828501610d8f565b91505092915050565b7f4e487b7100000000000000000000000000000000000000000000000000000000600052601160045260246000fd5b6000610fab82610da4565b9150610fb683610da4565b9250828203905081811115610fce57610fcd610f71565b5b92915050565b6000610fdf82610da4565b9150610fea83610da4565b925082820190508082111561100257611001610f71565b5b92915050565b61101181610d66565b82525050565b600060208201905061102c6000830184611008565b92915050565b7f4163636f756e74206e6f7420616c6c6f77656420746f2077697468647261772060008201527f7468697320616d6f756e74000000000000000000000000000000000000000000602082015250565b600061108e602b83610c9a565b915061109982611032565b604082019050919050565b600060208201905081810360008301526110bd81611081565b9050919050565b60008160011c9050919050565b6000808291508390505b600185111561111b578086048111156110f7576110f6610f71565b5b60018516156111065780820291505b8081029050611114856110c4565b94506110db565b94509492505050565b60008261113457600190506111f0565b8161114257600090506111f0565b8160018114611158576002811461116257611191565b60019150506111f0565b60ff84111561117457611173610f71565b5b8360020a91508482111561118b5761118a610f71565b5b506111f0565b5060208310610133831016604e8410600b84101617156111c65782820a9050838111156111c1576111c0610f71565b5b6111f0565b6111d384848460016110d1565b925090508184048111156111ea576111e9610f71565b5b81810290505b9392505050565b600061120282610da4565b915061120d83610da4565b925061123a7fffffffffffffffffffffffffffffffffffffffffffffffffffffffffffffffff8484611124565b905092915050565b600061124d82610da4565b915061125883610da4565b925082820261126681610da4565b9150828204841483151761127d5761127c610f71565b5b509291505056fea2646970667358221220c3268c8927fa84cf2373707ebef57f0df6e8bf593a7b56da5bb9be804dda408364736f6c634300081c0033",
  "linkReferences": {},
  "deployedLinkReferences": {}
}