{
  "_format": "hh-sol-artifact-1",
  "contractName": "PoorToken",
  "sourceName": "contracts/PoorToken.sol",
  "abi": [
    {
      "inputs": [
        {
          "internalType": "address",
          "name": "account",
          "type": "address"
        }
      ],
      "name": "NotAuthorized",
      "type": "error"
    },
    {
      "inputs": [],
      "name": "NotEnoughSupply",
      "type": "error"
    },
    {
      "inputs": [],
      "name": "NotEnoughValue",
      "type": "error"
    },
    {
      "anonymous": false,
      "inputs": [
        {
          "indexed": true,
          "internalType": "address",
          "name": "owner",
          "type": "address"
        },
        {
          "indexed": true,
          "internalType": "address",
          "name": "spender",
          "type": "address"
        },
        {
          "indexed": false,
          "internalType": "uint256",
          "name": "value",
          "type": "uint256"
        }
      ],
      "name": "Approval",
      "type": "event"
    },
    {
      "anonymous": false,
      "inputs": [
        {
          "indexed": true,
          "internalType": "address",
          "name": "owner",
          "type": "address"
        },
        {
          "indexed": false,
          "internalType": "uint256",
          "name": "tokenId",
          "type": "uint256"
        }
      ],
      "name": "Mint",
      "type": "event"
    },
    {
      "anonymous": false,
      "inputs": [
        {
          "indexed": true,
          "internalType": "address",
          "name": "from",
          "type": "address"
        },
        {
          "indexed": true,
          "internalType": "address",
          "name": "to",
          "type": "address"
        },
        {
          "indexed": false,
          "internalType": "uint256",
          "name": "value",
          "type": "uint256"
        }
      ],
      "name": "Transfer",
      "type": "event"
    },
    {
      "inputs": [],
      "name": "DECIMALS",
      "outputs": [
        {
          "internalType": "uint8",
          "name": "",
          "type": "uint8"
        }
      ],
      "stateMutability": "view",
      "type": "function"
    },
    {
      "inputs": [],
      "name": "FEE",
      "outputs": [
        {
          "internalType": "uint256",
          "name": "",
          "type": "uint256"
        }
      ],
      "stateMutability": "view",
      "type": "function"
    },
    {
      "inputs": [],
      "name": "INITIAL_SUPPLY",
      "outputs": [
        {
          "internalType": "uint256",
          "name": "",
          "type": "uint256"
        }
      ],
      "stateMutability": "view",
      "type": "function"
    },
    {
      "inputs": [],
      "name": "NAME",
      "outputs": [
        {
          "internalType": "string",
          "name": "",
          "type": "string"
        }
      ],
      "stateMutability": "view",
      "type": "function"
    },
    {
      "inputs": [],
      "name": "SYMBOL",
      "outputs": [
        {
          "internalType": "string",
          "name": "",
          "type": "string"
        }
      ],
      "stateMutability": "view",
      "type": "function"
    },
    {
      "inputs": [
        {
          "internalType": "address",
          "name": "owner",
          "type": "address"
        },
        {
          "internalType": "address",
          "name": "spender",
          "type": "address"
        }
      ],
      "name": "allowance",
      "outputs": [
        {
          "internalType": "uint256",
          "name": "remaining",
          "type": "uint256"
        }
      ],
      "stateMutability": "view",
      "type": "function"
    },
    {
      "inputs": [
        {
          "internalType": "address",
          "name": "owner",
          "type": "address"
        },
        {
          "internalType": "address",
          "name": "spender",
          "type": "address"
        }
      ],
      "name": "amount",
      "outputs": [
        {
          "internalType": "uint256",
          "name": "remaining",
          "type": "uint256"
        }
      ],
      "stateMutability": "view",
      "type": "function"
    },
    {
      "inputs": [
        {
          "internalType": "address",
          "name": "spender",
          "type": "address"
        },
        {
          "internalType": "uint256",
          "name": "value",
          "type": "uint256"
        }
      ],
      "name": "approve",
      "outputs": [
        {
          "internalType": "bool",
          "name": "success",
          "type": "bool"
        }
      ],
      "stateMutability": "nonpayable",
      "type": "function"
    },
    {
      "inputs": [
        {
          "internalType": "address",
          "name": "owner",
          "type": "address"
        }
      ],
      "name": "balanceOf",
      "outputs": [
        {
          "internalType": "uint256",
          "name": "balance",
          "type": "uint256"
        }
      ],
      "stateMutability": "view",
      "type": "function"
    },
    {
      "inputs": [],
      "name": "mint",
      "outputs": [],
      "stateMutability": "payable",
      "type": "function"
    },
    {
      "inputs": [],
      "name": "totalSupply",
      "outputs": [
        {
          "internalType": "uint256",
          "name": "",
          "type": "uint256"
        }
      ],
      "stateMutability": "view",
      "type": "function"
    },
    {
      "inputs": [
        {
          "internalType": "address",
          "name": "to",
          "type": "address"
        },
        {
          "internalType": "uint256",
          "name": "value",
          "type": "uint256"
        }
      ],
      "name": "transfer",
      "outputs": [
        {
          "internalType": "bool",
          "name": "success",
          "type": "bool"
        }
      ],
      "stateMutability": "nonpayable",
      "type": "function"
    },
    {
      "inputs": [
        {
          "internalType": "address",
          "name": "from",
          "type": "address"
        },
        {
          "internalType": "address",
          "name": "to",
          "type": "address"
        },
        {
          "internalType": "uint256",
          "name": "value",
          "type": "uint256"
        }
      ],
      "name": "transferFrom",
      "outputs": [
        {
          "internalType": "bool",
          "name": "success",
          "type": "bool"
        }
      ],
      "stateMutability": "nonpayable",
      "type": "function"
    }
  ],
  "bytecode": "0x6080604052601260ff16600a61001591906101a4565b620f424061002391906101ef565b60005534801561003257600080fd5b50610231565b7f4e487b7100000000000000000000000000000000000000000000000000000000600052601160045260246000fd5b60008160011c9050919050565b6000808291508390505b60018511156100be5780860481111561009a57610099610038565b5b60018516156100a95780820291505b80810290506100b785610067565b945061007e565b94509492505050565b6000826100d75760019050610193565b816100e55760009050610193565b81600181146100fb576002811461010557610134565b6001915050610193565b60ff84111561011757610116610038565b5b8360020a91508482111561012e5761012d610038565b5b50610193565b5060208310610133831016604e8410600b84101617156101695782820a90508381111561016457610163610038565b5b610193565b6101768484846001610074565b9250905081840481111561018d5761018c610038565b5b81810290505b9392505050565b6000819050919050565b60006101af8261019a565b91506101ba8361019a565b92506101e77fffffffffffffffffffffffffffffffffffffffffffffffffffffffffffffffff84846100c7565b905092915050565b60006101fa8261019a565b91506102058361019a565b92508282026102138161019a565b9150828204841483151761022a57610229610038565b5b5092915050565b6112ae806102406000396000f3fe6080604052600436106100c25760003560e01c80635652d9901161007f578063a9059cbb11610059578063a9059cbb14610271578063c57981b5146102ae578063dd62ed3e146102d9578063f76f8d7814610316576100c2565b80635652d990146101cc57806370a0823114610209578063a3f4df7e14610246576100c2565b8063095ea7b3146100c75780631249c58b1461010457806318160ddd1461010e57806323b872dd146101395780632e0f2625146101765780632ff2e9dc146101a1575b600080fd5b3480156100d357600080fd5b506100ee60048036038101906100e99190610d1c565b610341565b6040516100fb9190610d77565b60405180910390f35b61010c610433565b005b34801561011a57600080fd5b5061012361058c565b6040516101309190610da1565b60405180910390f35b34801561014557600080fd5b50610160600480360381019061015b9190610dbc565b610592565b60405161016d9190610d77565b60405180910390f35b34801561018257600080fd5b5061018b610980565b6040516101989190610e2b565b60405180910390f35b3480156101ad57600080fd5b506101b6610985565b6040516101c39190610da1565b60405180910390f35b3480156101d857600080fd5b506101f360048036038101906101ee9190610e46565b6109a7565b6040516102009190610da1565b60405180910390f35b34801561021557600080fd5b50610230600480360381019061022b9190610e86565b6109cc565b60405161023d9190610da1565b60405180910390f35b34801561025257600080fd5b5061025b6109e4565b6040516102689190610f43565b60405180910390f35b34801561027d57600080fd5b5061029860048036038101906102939190610d1c565b610a1d565b6040516102a59190610d77565b60405180910390f35b3480156102ba57600080fd5b506102c3610bb3565b6040516102d09190610da1565b60405180910390f35b3480156102e557600080fd5b5061030060048036038101906102fb9190610e46565b610bbe565b60405161030d9190610da1565b60405180910390f35b34801561032257600080fd5b5061032b610c4a565b6040516103389190610f43565b60405180910390f35b600081600260003373ffffffffffffffffffffffffffffffffffffffff1673ffffffffffffffffffffffffffffffffffffffff16815260200190815260200160002060008573ffffffffffffffffffffffffffffffffffffffff1673ffffffffffffffffffffffffffffffffffffffff168152602001908152602001600020819055508273ffffffffffffffffffffffffffffffffffffffff163373ffffffffffffffffffffffffffffffffffffffff167f8c5be1e5ebec7d5bd14f71427d1e84f3dd0314c0f7b2291e5b200ac8c7c3b925846040516104219190610da1565b60405180910390a36001905092915050565b662386f26fc100003414610473576040517fe2f844a000000000000000000000000000000000000000000000000000000000815260040160405180910390fd5b60008054905060018110156104b4576040517f74d9e0b900000000000000000000000000000000000000000000000000000000815260040160405180910390fd5b60016000808282546104c69190610f94565b9250508190555060018060003373ffffffffffffffffffffffffffffffffffffffff1673ffffffffffffffffffffffffffffffffffffffff168152602001908152602001600020600082825461051c9190610fc8565b925050819055503373ffffffffffffffffffffffffffffffffffffffff16600073ffffffffffffffffffffffffffffffffffffffff167fddf252ad1be2c89b69c2b068fc378daa952ba7f163c4a11628f55a4df523b3ef346040516105819190610da1565b60405180910390a350565b60005481565b6000808473ffffffffffffffffffffffffffffffffffffffff163373ffffffffffffffffffffffffffffffffffffffff161490508015801561065057506000600260008773ffffffffffffffffffffffffffffffffffffffff1673ffffffffffffffffffffffffffffffffffffffff16815260200190815260200160002060003373ffffffffffffffffffffffffffffffffffffffff1673ffffffffffffffffffffffffffffffffffffffff16815260200190815260200160002054145b1561069257336040517f4a0bfec1000000000000000000000000000000000000000000000000000000008152600401610689919061100b565b60405180910390fd5b82600160008773ffffffffffffffffffffffffffffffffffffffff1673ffffffffffffffffffffffffffffffffffffffff16815260200190815260200160002054101561070b576040517fe2f844a000000000000000000000000000000000000000000000000000000000815260040160405180910390fd5b806108635782600260008773ffffffffffffffffffffffffffffffffffffffff1673ffffffffffffffffffffffffffffffffffffffff16815260200190815260200160002060003373ffffffffffffffffffffffffffffffffffffffff1673ffffffffffffffffffffffffffffffffffffffff1681526020019081526020016000205410156107cf576040517f08c379a00000000000000000000000000000000000000000000000000000000081526004016107c690611098565b60405180910390fd5b82600260008773ffffffffffffffffffffffffffffffffffffffff1673ffffffffffffffffffffffffffffffffffffffff16815260200190815260200160002060003373ffffffffffffffffffffffffffffffffffffffff1673ffffffffffffffffffffffffffffffffffffffff168152602001908152602001600020600082825461085b9190610f94565b925050819055505b82600160008773ffffffffffffffffffffffffffffffffffffffff1673ffffffffffffffffffffffffffffffffffffffff16815260200190815260200160002060008282546108b29190610f94565b9250508190555082600160008673ffffffffffffffffffffffffffffffffffffffff1673ffffffffffffffffffffffffffffffffffffffff16815260200190815260200160002060008282546109089190610fc8565b925050819055508373ffffffffffffffffffffffffffffffffffffffff168573ffffffffffffffffffffffffffffffffffffffff167fddf252ad1be2c89b69c2b068fc378daa952ba7f163c4a11628f55a4df523b3ef8560405161096c9190610da1565b60405180910390a360019150509392505050565b601281565b601260ff16600a61099691906111eb565b620f42406109a49190611236565b81565b6002602052816000526040600020602052806000526040600020600091509150505481565b60016020528060005260406000206000915090505481565b6040518060400160405280600981526020017f506f6f72546f6b656e000000000000000000000000000000000000000000000081525081565b600081600160003373ffffffffffffffffffffffffffffffffffffffff1673ffffffffffffffffffffffffffffffffffffffff168152602001908152602001600020541015610a98576040517fe2f844a000000000000000000000000000000000000000000000000000000000815260040160405180910390fd5b81600160003373ffffffffffffffffffffffffffffffffffffffff1673ffffffffffffffffffffffffffffffffffffffff1681526020019081526020016000206000828254610ae79190610f94565b9250508190555081600160008573ffffffffffffffffffffffffffffffffffffffff1673ffffffffffffffffffffffffffffffffffffffff1681526020019081526020016000206000828254610b3d9190610fc8565b925050819055508273ffffffffffffffffffffffffffffffffffffffff163373ffffffffffffffffffffffffffffffffffffffff167fddf252ad1be2c89b69c2b068fc378daa952ba7f163c4a11628f55a4df523b3ef84604051610ba19190610da1565b60405180910390a36001905092915050565b662386f26fc1000081565b600080600260008573ffffffffffffffffffffffffffffffffffffffff1673ffffffffffffffffffffffffffffffffffffffff16815260200190815260200160002060008473ffffffffffffffffffffffffffffffffffffffff1673ffffffffffffffffffffffffffffffffffffffff1681526020019081526020016000205490508091505092915050565b6040518060400160405280600481526020017f504f4f520000000000000000000000000000000000000000000000000000000081525081565b600080fd5b600073ffffffffffffffffffffffffffffffffffffffff82169050919050565b6000610cb382610c88565b9050919050565b610cc381610ca8565b8114610cce57600080fd5b50565b600081359050610ce081610cba565b92915050565b6000819050919050565b610cf981610ce6565b8114610d0457600080fd5b50565b600081359050610d1681610cf0565b92915050565b60008060408385031215610d3357610d32610c83565b5b6000610d4185828601610cd1565b9250506020610d5285828601610d07565b9150509250929050565b60008115159050919050565b610d7181610d5c565b82525050565b6000602082019050610d8c6000830184610d68565b92915050565b610d9b81610ce6565b82525050565b6000602082019050610db66000830184610d92565b92915050565b600080600060608486031215610dd557610dd4610c83565b5b6000610de386828701610cd1565b9350506020610df486828701610cd1565b9250506040610e0586828701610d07565b9150509250925092565b600060ff82169050919050565b610e2581610e0f565b82525050565b6000602082019050610e406000830184610e1c565b92915050565b60008060408385031215610e5d57610e5c610c83565b5b6000610e6b85828601610cd1565b9250506020610e7c85828601610cd1565b9150509250929050565b600060208284031215610e9c57610e9b610c83565b5b6000610eaa84828501610cd1565b91505092915050565b600081519050919050565b600082825260208201905092915050565b60005b83811015610eed578082015181840152602081019050610ed2565b60008484015250505050565b6000601f19601f8301169050919050565b6000610f1582610eb3565b610f1f8185610ebe565b9350610f2f818560208601610ecf565b610f3881610ef9565b840191505092915050565b60006020820190508181036000830152610f5d8184610f0a565b905092915050565b7f4e487b7100000000000000000000000000000000000000000000000000000000600052601160045260246000fd5b6000610f9f82610ce6565b9150610faa83610ce6565b9250828203905081811115610fc257610fc1610f65565b5b92915050565b6000610fd382610ce6565b9150610fde83610ce6565b9250828201905080821115610ff657610ff5610f65565b5b92915050565b61100581610ca8565b82525050565b60006020820190506110206000830184610ffc565b92915050565b7f4163636f756e74206e6f7420616c6c6f77656420746f2077697468647261772060008201527f7468697320616d6f756e74000000000000000000000000000000000000000000602082015250565b6000611082602b83610ebe565b915061108d82611026565b604082019050919050565b600060208201905081810360008301526110b181611075565b9050919050565b60008160011c9050919050565b6000808291508390505b600185111561110f578086048111156110eb576110ea610f65565b5b60018516156110fa5780820291505b8081029050611108856110b8565b94506110cf565b94509492505050565b60008261112857600190506111e4565b8161113657600090506111e4565b816001811461114c576002811461115657611185565b60019150506111e4565b60ff84111561116857611167610f65565b5b8360020a91508482111561117f5761117e610f65565b5b506111e4565b5060208310610133831016604e8410600b84101617156111ba5782820a9050838111156111b5576111b4610f65565b5b6111e4565b6111c784848460016110c5565b925090508184048111156111de576111dd610f65565b5b81810290505b9392505050565b60006111f682610ce6565b915061120183610ce6565b925061122e7fffffffffffffffffffffffffffffffffffffffffffffffffffffffffffffffff8484611118565b905092915050565b600061124182610ce6565b915061124c83610ce6565b925082820261125a81610ce6565b9150828204841483151761127157611270610f65565b5b509291505056fea264697066735822122005333ef4b1ae79b0dd81f71bf6e73cc38f3864ec33c52c9fcd34382c2664dc6064736f6c634300081c0033",
  "linkReferences": {},
  "deployedLinkReferences": {}
}